S01700004763634170706C69636174696F6E312E737265635B
S11300000C9434000C9446000C9446000C94460066
S11300100C9446000C9446000C9446000C94460044
S11300200C9446000C9446000C9446000C94480032
S11300300C9446000C9446000C9446000C94460024
S11300400C9446000C9446000C9446000C94460014
S11300500C9446000C9446000C9446000C94460004
S11300600C9446000C94460011241FBECFEFD8E038
S1130070DEBFCDBF21E0A0E0B1E001C01D92A230FF
S1130080B207E1F70E9494000C9412010C94000052
S11300901F920F920FB60F9211248F939F93EF9399
S11300A0FF9315BCE8E8F0E0808191818A53924D7A
S11300B09183808380910101823061F018F4813052
S11300C031F012C0833049F0843051F00DC082E029
S11300D088B90AC088E088B907C081E088B904C03B
S11300E084E088B91092010180910001883C29F4D0
S11300F085B5836085BD10920001809101018F5FF9
S113010080930101809100018F5F80930001FF9132
S1130110EF919F918F910F900FBE0F901F901895A4
S113012089B18095817008958FE087B9589A509865
S1130130EFE6F0E0808182608083789486EC9DE233
S11301409093890080938800569A84B5826484BD14
S11301508BE987BDC0E0D0E00F2EF3E06F2EF02DC9
S11301606894772471F801E810E00F2EF4E8AF2EBC
S1130170B12CF02D0F2EF8E8CF2ED12CF02D0F2E10
S1130180F6ECEF2EFDE2FF2EF02D99249394812CB2
S113019001C0C92DC130A9F128F0C23049F0C330E3
S11301A0B1F1F8CF0E9490008823A1F3C72DF2CFBC
S11301B02FE986E891E0215080409040E1F700C0AB
S11301C00000D11109C0F80180818460808390927D
S11301D00001C92DD92DDECFD130D9F6809100018F
S11301E08F5F8093000118B8F80180818B7F808332
S11301F0F50111821082F601F182E082C92DD82D19
S1130200C9CF0E9490008111C5CFC62DC3CFFFE98D
S113021026E881E0F15020408040E1F700C0000072
S10B0220C82DB8CFF894FFCFFC
S9030000FC
